{
  "_format": "hh-sol-artifact-1",
  "contractName": "AchievementBadges",
  "sourceName": "contracts/AchievementBadges.sol",
  "abi": [
    {
      "inputs": [],
      "stateMutability": "nonpayable",
      "type": "constructor"
    },
    {
      "inputs": [
        {
          "internalType": "address",
          "name": "sender",
          "type": "address"
        },
        {
          "internalType": "uint256",
          "name": "tokenId",
          "type": "uint256"
        },
        {
          "internalType": "address",
          "name": "owner",
          "type": "address"
        }
      ],
      "name": "ERC721IncorrectOwner",
      "type": "error"
    },
    {
      "inputs": [
        {
          "internalType": "address",
          "name": "operator",
          "type": "address"
        },
        {
          "internalType": "uint256",
          "name": "tokenId",
          "type": "uint256"
        }
      ],
      "name": "ERC721InsufficientApproval",
      "type": "error"
    },
    {
      "inputs": [
        {
          "internalType": "address",
          "name": "approver",
          "type": "address"
        }
      ],
      "name": "ERC721InvalidApprover",
      "type": "error"
    },
    {
      "inputs": [
        {
          "internalType": "address",
          "name": "operator",
          "type": "address"
        }
      ],
      "name": "ERC721InvalidOperator",
      "type": "error"
    },
    {
      "inputs": [
        {
          "internalType": "address",
          "name": "owner",
          "type": "address"
        }
      ],
      "name": "ERC721InvalidOwner",
      "type": "error"
    },
    {
      "inputs": [
        {
          "internalType": "address",
          "name": "receiver",
          "type": "address"
        }
      ],
      "name": "ERC721InvalidReceiver",
      "type": "error"
    },
    {
      "inputs": [
        {
          "internalType": "address",
          "name": "sender",
          "type": "address"
        }
      ],
      "name": "ERC721InvalidSender",
      "type": "error"
    },
    {
      "inputs": [
        {
          "internalType": "uint256",
          "name": "tokenId",
          "type": "uint256"
        }
      ],
      "name": "ERC721NonexistentToken",
      "type": "error"
    },
    {
      "inputs": [
        {
          "internalType": "address",
          "name": "owner",
          "type": "address"
        }
      ],
      "name": "OwnableInvalidOwner",
      "type": "error"
    },
    {
      "inputs": [
        {
          "internalType": "address",
          "name": "account",
          "type": "address"
        }
      ],
      "name": "OwnableUnauthorizedAccount",
      "type": "error"
    },
    {
      "anonymous": false,
      "inputs": [
        {
          "indexed": true,
          "internalType": "address",
          "name": "owner",
          "type": "address"
        },
        {
          "indexed": true,
          "internalType": "address",
          "name": "approved",
          "type": "address"
        },
        {
          "indexed": true,
          "internalType": "uint256",
          "name": "tokenId",
          "type": "uint256"
        }
      ],
      "name": "Approval",
      "type": "event"
    },
    {
      "anonymous": false,
      "inputs": [
        {
          "indexed": true,
          "internalType": "address",
          "name": "owner",
          "type": "address"
        },
        {
          "indexed": true,
          "internalType": "address",
          "name": "operator",
          "type": "address"
        },
        {
          "indexed": false,
          "internalType": "bool",
          "name": "approved",
          "type": "bool"
        }
      ],
      "name": "ApprovalForAll",
      "type": "event"
    },
    {
      "anonymous": false,
      "inputs": [
        {
          "indexed": false,
          "internalType": "uint256",
          "name": "_fromTokenId",
          "type": "uint256"
        },
        {
          "indexed": false,
          "internalType": "uint256",
          "name": "_toTokenId",
          "type": "uint256"
        }
      ],
      "name": "BatchMetadataUpdate",
      "type": "event"
    },
    {
      "anonymous": false,
      "inputs": [
        {
          "indexed": false,
          "internalType": "uint256",
          "name": "_tokenId",
          "type": "uint256"
        }
      ],
      "name": "MetadataUpdate",
      "type": "event"
    },
    {
      "anonymous": false,
      "inputs": [
        {
          "indexed": true,
          "internalType": "address",
          "name": "previousOwner",
          "type": "address"
        },
        {
          "indexed": true,
          "internalType": "address",
          "name": "newOwner",
          "type": "address"
        }
      ],
      "name": "OwnershipTransferred",
      "type": "event"
    },
    {
      "anonymous": false,
      "inputs": [
        {
          "indexed": true,
          "internalType": "address",
          "name": "from",
          "type": "address"
        },
        {
          "indexed": true,
          "internalType": "address",
          "name": "to",
          "type": "address"
        },
        {
          "indexed": true,
          "internalType": "uint256",
          "name": "tokenId",
          "type": "uint256"
        }
      ],
      "name": "Transfer",
      "type": "event"
    },
    {
      "inputs": [
        {
          "internalType": "string",
          "name": "badgeType",
          "type": "string"
        },
        {
          "internalType": "string",
          "name": "badgeURI",
          "type": "string"
        }
      ],
      "name": "addBadgeType",
      "outputs": [],
      "stateMutability": "nonpayable",
      "type": "function"
    },
    {
      "inputs": [
        {
          "internalType": "address",
          "name": "to",
          "type": "address"
        },
        {
          "internalType": "uint256",
          "name": "tokenId",
          "type": "uint256"
        }
      ],
      "name": "approve",
      "outputs": [],
      "stateMutability": "nonpayable",
      "type": "function"
    },
    {
      "inputs": [
        {
          "internalType": "address",
          "name": "owner",
          "type": "address"
        }
      ],
      "name": "balanceOf",
      "outputs": [
        {
          "internalType": "uint256",
          "name": "",
          "type": "uint256"
        }
      ],
      "stateMutability": "view",
      "type": "function"
    },
    {
      "inputs": [
        {
          "internalType": "uint256",
          "name": "tokenId",
          "type": "uint256"
        }
      ],
      "name": "getApproved",
      "outputs": [
        {
          "internalType": "address",
          "name": "",
          "type": "address"
        }
      ],
      "stateMutability": "view",
      "type": "function"
    },
    {
      "inputs": [
        {
          "internalType": "address",
          "name": "owner",
          "type": "address"
        },
        {
          "internalType": "address",
          "name": "operator",
          "type": "address"
        }
      ],
      "name": "isApprovedForAll",
      "outputs": [
        {
          "internalType": "bool",
          "name": "",
          "type": "bool"
        }
      ],
      "stateMutability": "view",
      "type": "function"
    },
    {
      "inputs": [
        {
          "internalType": "address",
          "name": "recipient",
          "type": "address"
        },
        {
          "internalType": "string",
          "name": "badgeType",
          "type": "string"
        }
      ],
      "name": "mintBadge",
      "outputs": [],
      "stateMutability": "nonpayable",
      "type": "function"
    },
    {
      "inputs": [],
      "name": "name",
      "outputs": [
        {
          "internalType": "string",
          "name": "",
          "type": "string"
        }
      ],
      "stateMutability": "view",
      "type": "function"
    },
    {
      "inputs": [],
      "name": "owner",
      "outputs": [
        {
          "internalType": "address",
          "name": "",
          "type": "address"
        }
      ],
      "stateMutability": "view",
      "type": "function"
    },
    {
      "inputs": [
        {
          "internalType": "uint256",
          "name": "tokenId",
          "type": "uint256"
        }
      ],
      "name": "ownerOf",
      "outputs": [
        {
          "internalType": "address",
          "name": "",
          "type": "address"
        }
      ],
      "stateMutability": "view",
      "type": "function"
    },
    {
      "inputs": [],
      "name": "renounceOwnership",
      "outputs": [],
      "stateMutability": "nonpayable",
      "type": "function"
    },
    {
      "inputs": [
        {
          "internalType": "address",
          "name": "from",
          "type": "address"
        },
        {
          "internalType": "address",
          "name": "to",
          "type": "address"
        },
        {
          "internalType": "uint256",
          "name": "tokenId",
          "type": "uint256"
        }
      ],
      "name": "safeTransferFrom",
      "outputs": [],
      "stateMutability": "nonpayable",
      "type": "function"
    },
    {
      "inputs": [
        {
          "internalType": "address",
          "name": "from",
          "type": "address"
        },
        {
          "internalType": "address",
          "name": "to",
          "type": "address"
        },
        {
          "internalType": "uint256",
          "name": "tokenId",
          "type": "uint256"
        },
        {
          "internalType": "bytes",
          "name": "data",
          "type": "bytes"
        }
      ],
      "name": "safeTransferFrom",
      "outputs": [],
      "stateMutability": "nonpayable",
      "type": "function"
    },
    {
      "inputs": [
        {
          "internalType": "address",
          "name": "operator",
          "type": "address"
        },
        {
          "internalType": "bool",
          "name": "approved",
          "type": "bool"
        }
      ],
      "name": "setApprovalForAll",
      "outputs": [],
      "stateMutability": "nonpayable",
      "type": "function"
    },
    {
      "inputs": [
        {
          "internalType": "bytes4",
          "name": "interfaceId",
          "type": "bytes4"
        }
      ],
      "name": "supportsInterface",
      "outputs": [
        {
          "internalType": "bool",
          "name": "",
          "type": "bool"
        }
      ],
      "stateMutability": "view",
      "type": "function"
    },
    {
      "inputs": [],
      "name": "symbol",
      "outputs": [
        {
          "internalType": "string",
          "name": "",
          "type": "string"
        }
      ],
      "stateMutability": "view",
      "type": "function"
    },
    {
      "inputs": [
        {
          "internalType": "uint256",
          "name": "tokenId",
          "type": "uint256"
        }
      ],
      "name": "tokenURI",
      "outputs": [
        {
          "internalType": "string",
          "name": "",
          "type": "string"
        }
      ],
      "stateMutability": "view",
      "type": "function"
    },
    {
      "inputs": [
        {
          "internalType": "address",
          "name": "from",
          "type": "address"
        },
        {
          "internalType": "address",
          "name": "to",
          "type": "address"
        },
        {
          "internalType": "uint256",
          "name": "tokenId",
          "type": "uint256"
        }
      ],
      "name": "transferFrom",
      "outputs": [],
      "stateMutability": "nonpayable",
      "type": "function"
    },
    {
      "inputs": [
        {
          "internalType": "address",
          "name": "newOwner",
          "type": "address"
        }
      ],
      "name": "transferOwnership",
      "outputs": [],
      "stateMutability": "nonpayable",
      "type": "function"
    }
  ],
  "bytecode": "0x60806040523480156200001157600080fd5b50336040518060400160405280601181526020017f416368696576656d656e744261646765730000000000000000000000000000008152506040518060400160405280600581526020017f424144474500000000000000000000000000000000000000000000000000000081525081600090816200009091906200054a565b508060019081620000a291906200054a565b505050600073ffffffffffffffffffffffffffffffffffffffff168173ffffffffffffffffffffffffffffffffffffffff16036200011a5760006040517f1e4fbdf700000000000000000000000000000000000000000000000000000000815260040162000111919062000676565b60405180910390fd5b6200012b816200020a60201b60201c565b5060405180610100016040528060d98152602001620032c560d99139600a6040516200015790620006ee565b908152602001604051809103902090816200017391906200054a565b5060405180610120016040528060f58152602001620031d060f59139600a6040516200019f9062000755565b90815260200160405180910390209081620001bb91906200054a565b5060405180610120016040528060ed8152602001620030e360ed9139600a604051620001e790620007bc565b908152602001604051809103902090816200020391906200054a565b50620007d3565b6000600760009054906101000a900473ffffffffffffffffffffffffffffffffffffffff16905081600760006101000a81548173ffffffffffffffffffffffffffffffffffffffff021916908373ffffffffffffffffffffffffffffffffffffffff1602179055508173ffffffffffffffffffffffffffffffffffffffff168173ffffffffffffffffffffffffffffffffffffffff167f8be0079c531659141344cd1fd0a4f28419497f9722a3daafe3b4186f6b6457e060405160405180910390a35050565b600081519050919050565b7f4e487b7100000000000000000000000000000000000000000000000000000000600052604160045260246000fd5b7f4e487b7100000000000000000000000000000000000000000000000000000000600052602260045260246000fd5b600060028204905060018216806200035257607f821691505b6020821081036200036857620003676200030a565b5b50919050565b60008190508160005260206000209050919050565b60006020601f8301049050919050565b600082821b905092915050565b600060088302620003d27fffffffffffffffffffffffffffffffffffffffffffffffffffffffffffffffff8262000393565b620003de868362000393565b95508019841693508086168417925050509392505050565b6000819050919050565b6000819050919050565b60006200042b620004256200041f84620003f6565b62000400565b620003f6565b9050919050565b6000819050919050565b62000447836200040a565b6200045f620004568262000432565b848454620003a0565b825550505050565b600090565b6200047662000467565b620004838184846200043c565b505050565b5b81811015620004ab576200049f6000826200046c565b60018101905062000489565b5050565b601f821115620004fa57620004c4816200036e565b620004cf8462000383565b81016020851015620004df578190505b620004f7620004ee8562000383565b83018262000488565b50505b505050565b600082821c905092915050565b60006200051f60001984600802620004ff565b1980831691505092915050565b60006200053a83836200050c565b9150826002028217905092915050565b6200055582620002d0565b67ffffffffffffffff811115620005715762000570620002db565b5b6200057d825462000339565b6200058a828285620004af565b600060209050601f831160018114620005c25760008415620005ad578287015190505b620005b985826200052c565b86555062000629565b601f198416620005d2866200036e565b60005b82811015620005fc57848901518255600182019150602085019450602081019050620005d5565b868310156200061c578489015162000618601f8916826200050c565b8355505b6001600288020188555050505b505050505050565b600073ffffffffffffffffffffffffffffffffffffffff82169050919050565b60006200065e8262000631565b9050919050565b620006708162000651565b82525050565b60006020820190506200068d600083018462000665565b92915050565b600081905092915050565b7f4c6576656c204d61737465720000000000000000000000000000000000000000600082015250565b6000620006d6600c8362000693565b9150620006e3826200069e565b600c82019050919050565b6000620006fb82620006c7565b9150819050919050565b7f436f6c6c65637469626c652048756e7465720000000000000000000000000000600082015250565b60006200073d60128362000693565b91506200074a8262000705565b601282019050919050565b600062000762826200072e565b9150819050919050565b7f53747265616b2053746172000000000000000000000000000000000000000000600082015250565b6000620007a4600b8362000693565b9150620007b1826200076c565b600b82019050919050565b6000620007c98262000795565b9150819050919050565b61290080620007e36000396000f3fe608060405234801561001057600080fd5b50600436106101165760003560e01c8063715018a6116100a2578063a261e43611610071578063a261e436146102cb578063b88d4fde146102e7578063c87b56dd14610303578063e985e9c514610333578063f2fde38b1461036357610116565b8063715018a6146102695780638da5cb5b1461027357806395d89b4114610291578063a22cb465146102af57610116565b806323b872dd116100e957806323b872dd146101b557806342842e0e146101d15780636352211e146101ed5780636b2bafc81461021d57806370a082311461023957610116565b806301ffc9a71461011b57806306fdde031461014b578063081812fc14610169578063095ea7b314610199575b600080fd5b61013560048036038101906101309190611c5d565b61037f565b6040516101429190611ca5565b60405180910390f35b6101536103e0565b6040516101609190611d50565b60405180910390f35b610183600480360381019061017e9190611da8565b610472565b6040516101909190611e16565b60405180910390f35b6101b360048036038101906101ae9190611e5d565b61048e565b005b6101cf60048036038101906101ca9190611e9d565b6104a4565b005b6101eb60048036038101906101e69190611e9d565b6105a6565b005b61020760048036038101906102029190611da8565b6105c6565b6040516102149190611e16565b60405180910390f35b61023760048036038101906102329190612025565b6105d8565b005b610253600480360381019061024e9190612081565b610744565b60405161026091906120bd565b60405180910390f35b6102716107fe565b005b61027b610812565b6040516102889190611e16565b60405180910390f35b61029961083c565b6040516102a69190611d50565b60405180910390f35b6102c960048036038101906102c49190612104565b6108ce565b005b6102e560048036038101906102e09190612144565b6108e4565b005b61030160048036038101906102fc919061225d565b61091c565b005b61031d60048036038101906103189190611da8565b610941565b60405161032a9190611d50565b60405180910390f35b61034d600480360381019061034891906122e0565b610953565b60405161035a9190611ca5565b60405180910390f35b61037d60048036038101906103789190612081565b6109e7565b005b6000634906490660e01b7bffffffffffffffffffffffffffffffffffffffffffffffffffffffff1916827bffffffffffffffffffffffffffffffffffffffffffffffffffffffff191614806103d957506103d882610a6d565b5b9050919050565b6060600080546103ef9061234f565b80601f016020809104026020016040519081016040528092919081815260200182805461041b9061234f565b80156104685780601f1061043d57610100808354040283529160200191610468565b820191906000526020600020905b81548152906001019060200180831161044b57829003601f168201915b5050505050905090565b600061047d82610b4f565b5061048782610bd7565b9050919050565b6104a0828261049b610c14565b610c1c565b5050565b600073ffffffffffffffffffffffffffffffffffffffff168273ffffffffffffffffffffffffffffffffffffffff16036105165760006040517f64a0ae9200000000000000000000000000000000000000000000000000000000815260040161050d9190611e16565b60405180910390fd5b600061052a8383610525610c14565b610c2e565b90508373ffffffffffffffffffffffffffffffffffffffff168173ffffffffffffffffffffffffffffffffffffffff16146105a0578382826040517f64283d7b00000000000000000000000000000000000000000000000000000000815260040161059793929190612380565b60405180910390fd5b50505050565b6105c18383836040518060200160405280600081525061091c565b505050565b60006105d182610b4f565b9050919050565b6000600a826040516105ea91906123f3565b908152602001604051809103902080546106039061234f565b905011610645576040517f08c379a000000000000000000000000000000000000000000000000000000000815260040161063c90612456565b60405180910390fd5b600060085490506008600081548092919061065f906124a5565b9190505550816009600083815260200190815260200160002090816106849190612699565b5061068f8382610e48565b61073f81600a846040516106a391906123f3565b908152602001604051809103902080546106bc9061234f565b80601f01602080910402602001604051908101604052809291908181526020018280546106e89061234f565b80156107355780601f1061070a57610100808354040283529160200191610735565b820191906000526020600020905b81548152906001019060200180831161071857829003601f168201915b5050505050610e66565b505050565b60008073ffffffffffffffffffffffffffffffffffffffff168273ffffffffffffffffffffffffffffffffffffffff16036107b75760006040517f89c62b640000000000000000000000000000000000000000000000000000000081526004016107ae9190611e16565b60405180910390fd5b600360008373ffffffffffffffffffffffffffffffffffffffff1673ffffffffffffffffffffffffffffffffffffffff168152602001908152602001600020549050919050565b610806610ec2565b6108106000610f49565b565b6000600760009054906101000a900473ffffffffffffffffffffffffffffffffffffffff16905090565b60606001805461084b9061234f565b80601f01602080910402602001604051908101604052809291908181526020018280546108779061234f565b80156108c45780601f10610899576101008083540402835291602001916108c4565b820191906000526020600020905b8154815290600101906020018083116108a757829003601f168201915b5050505050905090565b6108e06108d9610c14565b838361100f565b5050565b6108ec610ec2565b80600a836040516108fd91906123f3565b908152602001604051809103902090816109179190612699565b505050565b6109278484846104a4565b61093b610932610c14565b8585858561117e565b50505050565b606061094c8261132f565b9050919050565b6000600560008473ffffffffffffffffffffffffffffffffffffffff1673ffffffffffffffffffffffffffffffffffffffff16815260200190815260200160002060008373ffffffffffffffffffffffffffffffffffffffff1673ffffffffffffffffffffffffffffffffffffffff16815260200190815260200160002060009054906101000a900460ff16905092915050565b6109ef610ec2565b600073ffffffffffffffffffffffffffffffffffffffff168173ffffffffffffffffffffffffffffffffffffffff1603610a615760006040517f1e4fbdf7000000000000000000000000000000000000000000000000000000008152600401610a589190611e16565b60405180910390fd5b610a6a81610f49565b50565b60007f80ac58cd000000000000000000000000000000000000000000000000000000007bffffffffffffffffffffffffffffffffffffffffffffffffffffffff1916827bffffffffffffffffffffffffffffffffffffffffffffffffffffffff19161480610b3857507f5b5e139f000000000000000000000000000000000000000000000000000000007bffffffffffffffffffffffffffffffffffffffffffffffffffffffff1916827bffffffffffffffffffffffffffffffffffffffffffffffffffffffff1916145b80610b485750610b4782611442565b5b9050919050565b600080610b5b836114ac565b9050600073ffffffffffffffffffffffffffffffffffffffff168173ffffffffffffffffffffffffffffffffffffffff1603610bce57826040517f7e273289000000000000000000000000000000000000000000000000000000008152600401610bc591906120bd565b60405180910390fd5b80915050919050565b60006004600083815260200190815260200160002060009054906101000a900473ffffffffffffffffffffffffffffffffffffffff169050919050565b600033905090565b610c2983838360016114e9565b505050565b600080610c3a846114ac565b9050600073ffffffffffffffffffffffffffffffffffffffff168373ffffffffffffffffffffffffffffffffffffffff1614610c7c57610c7b8184866116ae565b5b600073ffffffffffffffffffffffffffffffffffffffff168173ffffffffffffffffffffffffffffffffffffffff1614610d0d57610cbe6000856000806114e9565b6001600360008373ffffffffffffffffffffffffffffffffffffffff1673ffffffffffffffffffffffffffffffffffffffff168152602001908152602001600020600082825403925050819055505b600073ffffffffffffffffffffffffffffffffffffffff168573ffffffffffffffffffffffffffffffffffffffff1614610d90576001600360008773ffffffffffffffffffffffffffffffffffffffff1673ffffffffffffffffffffffffffffffffffffffff168152602001908152602001600020600082825401925050819055505b846002600086815260200190815260200160002060006101000a81548173ffffffffffffffffffffffffffffffffffffffff021916908373ffffffffffffffffffffffffffffffffffffffff160217905550838573ffffffffffffffffffffffffffffffffffffffff168273ffffffffffffffffffffffffffffffffffffffff167fddf252ad1be2c89b69c2b068fc378daa952ba7f163c4a11628f55a4df523b3ef60405160405180910390a4809150509392505050565b610e62828260405180602001604052806000815250611772565b5050565b80600660008481526020019081526020016000209081610e869190612699565b507ff8e1a15aba9398e019f0b49df1a4fde98ee17ae345cb5f6b5e2c27f5033e8ce782604051610eb691906120bd565b60405180910390a15050565b610eca610c14565b73ffffffffffffffffffffffffffffffffffffffff16610ee8610812565b73ffffffffffffffffffffffffffffffffffffffff1614610f4757610f0b610c14565b6040517f118cdaa7000000000000000000000000000000000000000000000000000000008152600401610f3e9190611e16565b60405180910390fd5b565b6000600760009054906101000a900473ffffffffffffffffffffffffffffffffffffffff16905081600760006101000a81548173ffffffffffffffffffffffffffffffffffffffff021916908373ffffffffffffffffffffffffffffffffffffffff1602179055508173ffffffffffffffffffffffffffffffffffffffff168173ffffffffffffffffffffffffffffffffffffffff167f8be0079c531659141344cd1fd0a4f28419497f9722a3daafe3b4186f6b6457e060405160405180910390a35050565b600073ffffffffffffffffffffffffffffffffffffffff168273ffffffffffffffffffffffffffffffffffffffff160361108057816040517f5b08ba180000000000000000000000000000000000000000000000000000000081526004016110779190611e16565b60405180910390fd5b80600560008573ffffffffffffffffffffffffffffffffffffffff1673ffffffffffffffffffffffffffffffffffffffff16815260200190815260200160002060008473ffffffffffffffffffffffffffffffffffffffff1673ffffffffffffffffffffffffffffffffffffffff16815260200190815260200160002060006101000a81548160ff0219169083151502179055508173ffffffffffffffffffffffffffffffffffffffff168373ffffffffffffffffffffffffffffffffffffffff167f17307eab39ab6107e8899845ad3d59bd9653f200f220920489ca2b5937696c31836040516111719190611ca5565b60405180910390a3505050565b60008373ffffffffffffffffffffffffffffffffffffffff163b1115611328578273ffffffffffffffffffffffffffffffffffffffff1663150b7a02868685856040518563ffffffff1660e01b81526004016111dd94939291906127c0565b6020604051808303816000875af192505050801561121957506040513d601f19601f820116820180604052508101906112169190612821565b60015b61129d573d8060008114611249576040519150601f19603f3d011682016040523d82523d6000602084013e61124e565b606091505b50600081510361129557836040517f64a0ae9200000000000000000000000000000000000000000000000000000000815260040161128c9190611e16565b60405180910390fd5b805181602001fd5b63150b7a0260e01b7bffffffffffffffffffffffffffffffffffffffffffffffffffffffff1916817bffffffffffffffffffffffffffffffffffffffffffffffffffffffff19161461132657836040517f64a0ae9200000000000000000000000000000000000000000000000000000000815260040161131d9190611e16565b60405180910390fd5b505b5050505050565b606061133a82610b4f565b50600060066000848152602001908152602001600020805461135b9061234f565b80601f01602080910402602001604051908101604052809291908181526020018280546113879061234f565b80156113d45780601f106113a9576101008083540402835291602001916113d4565b820191906000526020600020905b8154815290600101906020018083116113b757829003601f168201915b5050505050905060006113e5611796565b905060008151036113fa57819250505061143d565b60008251111561142f57808260405160200161141792919061284e565b6040516020818303038152906040529250505061143d565b611438846117ad565b925050505b919050565b60007f01ffc9a7000000000000000000000000000000000000000000000000000000007bffffffffffffffffffffffffffffffffffffffffffffffffffffffff1916827bffffffffffffffffffffffffffffffffffffffffffffffffffffffff1916149050919050565b60006002600083815260200190815260200160002060009054906101000a900473ffffffffffffffffffffffffffffffffffffffff169050919050565b80806115225750600073ffffffffffffffffffffffffffffffffffffffff168273ffffffffffffffffffffffffffffffffffffffff1614155b1561165657600061153284610b4f565b9050600073ffffffffffffffffffffffffffffffffffffffff168373ffffffffffffffffffffffffffffffffffffffff161415801561159d57508273ffffffffffffffffffffffffffffffffffffffff168173ffffffffffffffffffffffffffffffffffffffff1614155b80156115b057506115ae8184610953565b155b156115f257826040517fa9fbf51f0000000000000000000000000000000000000000000000000000000081526004016115e99190611e16565b60405180910390fd5b811561165457838573ffffffffffffffffffffffffffffffffffffffff168273ffffffffffffffffffffffffffffffffffffffff167f8c5be1e5ebec7d5bd14f71427d1e84f3dd0314c0f7b2291e5b200ac8c7c3b92560405160405180910390a45b505b836004600085815260200190815260200160002060006101000a81548173ffffffffffffffffffffffffffffffffffffffff021916908373ffffffffffffffffffffffffffffffffffffffff16021790555050505050565b6116b9838383611816565b61176d57600073ffffffffffffffffffffffffffffffffffffffff168373ffffffffffffffffffffffffffffffffffffffff160361172e57806040517f7e27328900000000000000000000000000000000000000000000000000000000815260040161172591906120bd565b60405180910390fd5b81816040517f177e802f000000000000000000000000000000000000000000000000000000008152600401611764929190612872565b60405180910390fd5b505050565b61177c83836118d7565b611791611787610c14565b600085858561117e565b505050565b606060405180602001604052806000815250905090565b60606117b882610b4f565b5060006117c3611796565b905060008151116117e3576040518060200160405280600081525061180e565b806117ed846119d0565b6040516020016117fe92919061284e565b6040516020818303038152906040525b915050919050565b60008073ffffffffffffffffffffffffffffffffffffffff168373ffffffffffffffffffffffffffffffffffffffff16141580156118ce57508273ffffffffffffffffffffffffffffffffffffffff168473ffffffffffffffffffffffffffffffffffffffff16148061188f575061188e8484610953565b5b806118cd57508273ffffffffffffffffffffffffffffffffffffffff166118b583610bd7565b73ffffffffffffffffffffffffffffffffffffffff16145b5b90509392505050565b600073ffffffffffffffffffffffffffffffffffffffff168273ffffffffffffffffffffffffffffffffffffffff16036119495760006040517f64a0ae920000000000000000000000000000000000000000000000000000000081526004016119409190611e16565b60405180910390fd5b600061195783836000610c2e565b9050600073ffffffffffffffffffffffffffffffffffffffff168173ffffffffffffffffffffffffffffffffffffffff16146119cb5760006040517f73c6ac6e0000000000000000000000000000000000000000000000000000000081526004016119c29190611e16565b60405180910390fd5b505050565b6060600060016119df84611a9e565b01905060008167ffffffffffffffff8111156119fe576119fd611efa565b5b6040519080825280601f01601f191660200182016040528015611a305781602001600182028036833780820191505090505b509050600082602001820190505b600115611a93578080600190039150507f3031323334353637383961626364656600000000000000000000000000000000600a86061a8153600a8581611a8757611a8661289b565b5b04945060008503611a3e575b819350505050919050565b600080600090507a184f03e93ff9f4daa797ed6e38ed64bf6a1f0100000000000000008310611afc577a184f03e93ff9f4daa797ed6e38ed64bf6a1f0100000000000000008381611af257611af161289b565b5b0492506040810190505b6d04ee2d6d415b85acef81000000008310611b39576d04ee2d6d415b85acef81000000008381611b2f57611b2e61289b565b5b0492506020810190505b662386f26fc100008310611b6857662386f26fc100008381611b5e57611b5d61289b565b5b0492506010810190505b6305f5e1008310611b91576305f5e1008381611b8757611b8661289b565b5b0492506008810190505b6127108310611bb6576127108381611bac57611bab61289b565b5b0492506004810190505b60648310611bd95760648381611bcf57611bce61289b565b5b0492506002810190505b600a8310611be8576001810190505b80915050919050565b6000604051905090565b600080fd5b600080fd5b60007fffffffff0000000000000000000000000000000000000000000000000000000082169050919050565b611c3a81611c05565b8114611c4557600080fd5b50565b600081359050611c5781611c31565b92915050565b600060208284031215611c7357611c72611bfb565b5b6000611c8184828501611c48565b91505092915050565b60008115159050919050565b611c9f81611c8a565b82525050565b6000602082019050611cba6000830184611c96565b92915050565b600081519050919050565b600082825260208201905092915050565b60005b83811015611cfa578082015181840152602081019050611cdf565b60008484015250505050565b6000601f19601f8301169050919050565b6000611d2282611cc0565b611d2c8185611ccb565b9350611d3c818560208601611cdc565b611d4581611d06565b840191505092915050565b60006020820190508181036000830152611d6a8184611d17565b905092915050565b6000819050919050565b611d8581611d72565b8114611d9057600080fd5b50565b600081359050611da281611d7c565b92915050565b600060208284031215611dbe57611dbd611bfb565b5b6000611dcc84828501611d93565b91505092915050565b600073ffffffffffffffffffffffffffffffffffffffff82169050919050565b6000611e0082611dd5565b9050919050565b611e1081611df5565b82525050565b6000602082019050611e2b6000830184611e07565b92915050565b611e3a81611df5565b8114611e4557600080fd5b50565b600081359050611e5781611e31565b92915050565b60008060408385031215611e7457611e73611bfb565b5b6000611e8285828601611e48565b9250506020611e9385828601611d93565b9150509250929050565b600080600060608486031215611eb657611eb5611bfb565b5b6000611ec486828701611e48565b9350506020611ed586828701611e48565b9250506040611ee686828701611d93565b9150509250925092565b600080fd5b600080fd5b7f4e487b7100000000000000000000000000000000000000000000000000000000600052604160045260246000fd5b611f3282611d06565b810181811067ffffffffffffffff82111715611f5157611f50611efa565b5b80604052505050565b6000611f64611bf1565b9050611f708282611f29565b919050565b600067ffffffffffffffff821115611f9057611f8f611efa565b5b611f9982611d06565b9050602081019050919050565b82818337600083830152505050565b6000611fc8611fc384611f75565b611f5a565b905082815260208101848484011115611fe457611fe3611ef5565b5b611fef848285611fa6565b509392505050565b600082601f83011261200c5761200b611ef0565b5b813561201c848260208601611fb5565b91505092915050565b6000806040838503121561203c5761203b611bfb565b5b600061204a85828601611e48565b925050602083013567ffffffffffffffff81111561206b5761206a611c00565b5b61207785828601611ff7565b9150509250929050565b60006020828403121561209757612096611bfb565b5b60006120a584828501611e48565b91505092915050565b6120b781611d72565b82525050565b60006020820190506120d260008301846120ae565b92915050565b6120e181611c8a565b81146120ec57600080fd5b50565b6000813590506120fe816120d8565b92915050565b6000806040838503121561211b5761211a611bfb565b5b600061212985828601611e48565b925050602061213a858286016120ef565b9150509250929050565b6000806040838503121561215b5761215a611bfb565b5b600083013567ffffffffffffffff81111561217957612178611c00565b5b61218585828601611ff7565b925050602083013567ffffffffffffffff8111156121a6576121a5611c00565b5b6121b285828601611ff7565b9150509250929050565b600067ffffffffffffffff8211156121d7576121d6611efa565b5b6121e082611d06565b9050602081019050919050565b60006122006121fb846121bc565b611f5a565b90508281526020810184848401111561221c5761221b611ef5565b5b612227848285611fa6565b509392505050565b600082601f83011261224457612243611ef0565b5b81356122548482602086016121ed565b91505092915050565b6000806000806080858703121561227757612276611bfb565b5b600061228587828801611e48565b945050602061229687828801611e48565b93505060406122a787828801611d93565b925050606085013567ffffffffffffffff8111156122c8576122c7611c00565b5b6122d48782880161222f565b91505092959194509250565b600080604083850312156122f7576122f6611bfb565b5b600061230585828601611e48565b925050602061231685828601611e48565b9150509250929050565b7f4e487b7100000000000000000000000000000000000000000000000000000000600052602260045260246000fd5b6000600282049050600182168061236757607f821691505b60208210810361237a57612379612320565b5b50919050565b60006060820190506123956000830186611e07565b6123a260208301856120ae565b6123af6040830184611e07565b949350505050565b600081905092915050565b60006123cd82611cc0565b6123d781856123b7565b93506123e7818560208601611cdc565b80840191505092915050565b60006123ff82846123c2565b915081905092915050565b7f496e76616c696420626164676520747970650000000000000000000000000000600082015250565b6000612440601283611ccb565b915061244b8261240a565b602082019050919050565b6000602082019050818103600083015261246f81612433565b9050919050565b7f4e487b7100000000000000000000000000000000000000000000000000000000600052601160045260246000fd5b60006124b082611d72565b91507fffffffffffffffffffffffffffffffffffffffffffffffffffffffffffffffff82036124e2576124e1612476565b5b600182019050919050565b60008190508160005260206000209050919050565b60006020601f8301049050919050565b600082821b905092915050565b60006008830261254f7fffffffffffffffffffffffffffffffffffffffffffffffffffffffffffffffff82612512565b6125598683612512565b95508019841693508086168417925050509392505050565b6000819050919050565b600061259661259161258c84611d72565b612571565b611d72565b9050919050565b6000819050919050565b6125b08361257b565b6125c46125bc8261259d565b84845461251f565b825550505050565b600090565b6125d96125cc565b6125e48184846125a7565b505050565b5b81811015612608576125fd6000826125d1565b6001810190506125ea565b5050565b601f82111561264d5761261e816124ed565b61262784612502565b81016020851015612636578190505b61264a61264285612502565b8301826125e9565b50505b505050565b600082821c905092915050565b600061267060001984600802612652565b1980831691505092915050565b6000612689838361265f565b9150826002028217905092915050565b6126a282611cc0565b67ffffffffffffffff8111156126bb576126ba611efa565b5b6126c5825461234f565b6126d082828561260c565b600060209050601f83116001811461270357600084156126f1578287015190505b6126fb858261267d565b865550612763565b601f198416612711866124ed565b60005b8281101561273957848901518255600182019150602085019450602081019050612714565b868310156127565784890151612752601f89168261265f565b8355505b6001600288020188555050505b505050505050565b600081519050919050565b600082825260208201905092915050565b60006127928261276b565b61279c8185612776565b93506127ac818560208601611cdc565b6127b581611d06565b840191505092915050565b60006080820190506127d56000830187611e07565b6127e26020830186611e07565b6127ef60408301856120ae565b81810360608301526128018184612787565b905095945050505050565b60008151905061281b81611c31565b92915050565b60006020828403121561283757612836611bfb565b5b60006128458482850161280c565b91505092915050565b600061285a82856123c2565b915061286682846123c2565b91508190509392505050565b60006040820190506128876000830185611e07565b61289460208301846120ae565b9392505050565b7f4e487b7100000000000000000000000000000000000000000000000000000000600052601260045260246000fdfea2646970667358221220cc1778a06b39e7c4b53e937079ce4a65caa2578f24fe8c12e95cd76c9490757764736f6c63430008140033646174613a6170706c69636174696f6e2f6a736f6e3b6261736536342c65794a755957316c496a6f69553352795a57467249464e30595849694c434a6b5a584e6a636d6c7764476c7662694936496b463359584a6b5a5751675a6d397949474e76625842735a585270626d6367595342736232356e49484e30636d5668617942336158526f6233563049484a6c6332563049534973496d463064484a70596e56305a584d694f6c7437496e527959576c3058335235634755694f694a42593268705a585a6c6257567564434973496e5a686248566c496a6f69553352795a57467249464e305958496966563139646174613a6170706c69636174696f6e2f6a736f6e3b6261736536342c65794a755957316c496a6f69513239736247566a64476c69624755675348567564475679496977695a47567a59334a7063485270623234694f694a42643246795a47566b49475a766369426a623278735a574e306157356e494746736243427a6347566a6157467349476c305a57317a49534973496d463064484a70596e56305a584d694f6c7437496e527959576c3058335235634755694f694a42593268705a585a6c6257567564434973496e5a686248566c496a6f69513239736247566a64476c69624755675348567564475679496e316466513d3d646174613a6170706c69636174696f6e2f6a736f6e3b6261736536342c65794a755957316c496a6f69544756325a5777675457467a64475679496977695a47567a59334a7063485270623234694f694a42643246795a47566b49475a766369426a62323177624756306157356e49474673624342735a585a6c62484d684969776959585230636d6c696458526c637949365733736964484a686158526664486c775a534936496b466a61476c6c646d56745a57353049697769646d4673645755694f694a4d5a585a6c6243424e59584e305a58496966563139",
  "linkReferences": {},
  "deployedLinkReferences": {}
}